:1000000012C024C023C022C021C020C01FC01EC0F7
:100010001DC01CC01BC01AC019C018C017C016C014
:1000200015C014C013C011241FBECFE5D4E0DEBF3D
:10003000CDBF10E0A0E6B0E0EEE6F1E002C0059032
:100040000D92A238B107D9F75CD08FC0D9CF30E07C
:1000500020E04EE150E0000041505109E1F72F5FF0
:100060003F4F82179307A9F70895AD9A81E090E07A
:10007000EEDFAD9881E090E0EACFCF93C82F807F8C
:10008000082E000C990B24E0959587952A95E1F7A9
:1000900095B3907F95BB95B38F70892B85BBE5DFBA
:1000A00085B3807F85BB85B3CF70C82BC5BBCF918F
:1000B000DCCFEF92FF920F931F93CF93DF938C01CE
:1000C000AC9880E8613009F080ECD7DFAC9AE801A9
:1000D00009900020E9F72197C01BD10B7801C701D7
:1000E000801B910B8C179D072CF4F70181917F01E8
:1000F000C4DFF5CFDF91CF911F910F91FF90EF906B
:100100000895CF93DF93CDB7DEB72A970FB6F89453
:10011000DEBF0FBECDBF8FE384BB84EF91E097DFDE
:100120008AE0E0E6F0E0DE01119601900D928A95FA
:10013000E1F7AC988E010F5F1F4F7E018BE0E80E58
:10014000F11CF80181918F0198DF0E151F05C9F789
:10015000AC9A88EC90E07BDF61E08AE690E0A9DF72
:0E01600062E088E790E0A5DFFFCFF894FFCFC4
:10016E004303030228010C0602022048692054684A
:10017E006572652E2E2E2E00436174746F20557796
:02018E0055001A
:00000001FF
