:1000000012C024C023C022C021C020C01FC01EC0F7
:100010001DC01CC01BC01AC019C018C017C016C014
:1000200015C014C013C011241FBECFE5D4E0DEBF3D
:10003000CDBF10E0A0E6B0E0E8E7F2E002C0059036
:100040000D92AA3BB107D9F75CD014C1D9CF30E0EB
:1000500020E04EE150E0000041505109E1F72F5FF0
:100060003F4F82179307A9F70895AD9A84E690E071
:10007000EEDFAD9884E690E0EACFCF93C82F807F83
:10008000082E000C990B24E0959587952A95E1F7A9
:1000900095B3907F95BB95B38F70892B85BBE5DFBA
:1000A00085B3807F85BB85B3CF70C82BC5BBCF918F
:1000B000DCCFEF92FF920F931F93CF93DF938C01CE
:1000C000AC9880E8613009F080ECD7DFAC9AE801A9
:1000D00009900020E9F72197C01BD10B7801C701D7
:1000E000801B910B8C179D072CF4F70181917F01E8
:1000F000C4DFF5CFDF91CF911F910F91FF90EF906B
:100100000895EF92FF920F931F93CF93DF93CDB794
:10011000DEB72A970FB6F894DEBF0FBECDBF8FE3D0
:1001200084BB80EF87BB8FE088BB84EF91E08FDFDB
:100130008AE0E0E6F0E0DE01119601900D928A95EA
:10014000E1F7AC988E010F5F1F4F7E014BE0E40E8C
:10015000F11CF80181918F0190DF0E151F05C9F781
:10016000AC9A88EC90E073DF61E086E790E0A1DF75
:1001700062E084E890E09DDF80ED97E068DF01E0D9
:1001800010E030E020E0C9010496A80102C0440F4D
:10019000551F8A95E2F7CA01809588BB90E080E000
:1001A00046B350E0082E02C0559547950A94E2F7F1
:1001B00040FD3AC0B801082E02C0660F771F0A94AE
:1001C000E2F746B350E046235723452BD1F35FEFC8
:1001D00060E7E2E051506040E040E1F700C000001D
:1001E000FC01EE0FFF1FE80FF91FE659FF4FE20F6A
:1001F000F31F80818983882321F261E08EE890E0FB
:1002000058DF62E08EE890E054DF898161E083325C
:10021000C1F08DEA90E04DDF62E0CE01019649DF4A
:1002200088EE93E014DFADCF01968430910509F09C
:10023000B7CF2F5F3F4F2330310509F0A4CF80E0C7
:10024000D9CF8EE990E035DF62E08EE890E031DFD3
:1002500080ED97E0FCDE90E080E02A960FB6F894FF
:10026000DEBF0FBECDBFDF91CF911F910F91FF90E9
:08027000EF900895F894FFCF10
:100278004303030228010C060202313233343536B7
:100288003738392A30232048692054686572652E2A
:100298002E2E2E00436174746F2055775500202050
:1002A8002020202020202020202020202000202066
:1002B800476F6F64204279652E2E2E2E004B65798C
:0A02C80020507265737365643A00FC
:00000001FF
